:0A01F400C0F9A4B0999282F880903F
:0801FE000208000002120000DB
:1001E200758901D2A9D2AFD28CAF09AE0812000E26
:0201F20080F794
:03000B000201925D
:10019200C0E0C0D0758CFC758A180513E513700297
:1001A2000512C394E8E51264809483400E75120030
:1001B2007513000509E50970020508D0D0D0E032B8
:10000E00AB07AA067C037DE812013D8E0A8F0B7C9E
:10001E00037DE8AF03AE0212013D7E007F64CFCDBB
:10002E00CFCECCCE12013D8E108F117C007D64AFF1
:10003E0003AE0212013D7E007F0ACFCDCFCECCCED5
:10004E0012013D8E0C8F0DAE02AF037C007D0A12A5
:10005E00013D8C0E8D0FE50F9001F493F580C2A338
:10006E007F017E001201C2D2A3E50D9001F493F53B
:10007E0080C2A27F017E001201C2D2A2E5119001C0
:10008E00F493F580C2A17F017E001201C2D2A1E5D8
:10009E000B9001F493F580C2A07F017E001201C285
:0300AE00D2A022BB
:1001C200E4FDFCC3ED9FEC9E5015E4FBFA0BBB0073
:0F01D200010AEB647B4A70F50DBD00010C80E45F
:0101E10022FB
:030000000200B14A
:0C00B100787FE4F6D8FD7581130200F89A
:10013D00BC000BBE0029EF8DF084FFADF022E4CCA6
:10014D00F875F008EF2FFFEE33FEEC33FCEE9DEC6F
:10015D00984005FCEE9DFE0FD5F0E9E4CEFD22EDB5
:10016D00F8F5F0EE8420D21CFEADF075F008EF2FFF
:10017D00FFED33FD4007985006D5F0F222C398FDF0
:05018D000FD5F0EA228D
:1000BD000201E2E493A3F8E493A34003F68001F276
:1000CD0008DFF48029E493A3F85407240CC8C33344
:1000DD00C4540F4420C8834004F456800146F6DF13
:1000ED00E4800B01020408102040809001FEE47EA4
:1000FD00019360BCA3FF543F30E509541FFEE49308
:10010D00A360010ECF54C025E060A840B8E493A3CE
:10011D00FAE493A3F8E493A3C8C582C8CAC583CAF9
:10012D00F0A3C8C582C8CAC583CADFE9DEE780BEB1
:0102060000F7
:00000001FF
