:10000000020172C280C2827F147E0012008C7F03C4
:1000100012012FD282C2827F057E0012008C7F03E4
:1000200012012FD282C2827F6412017E7F031201ED
:100030002FD282C2827F017E0012008C7F021201C9
:100040002FD282C2821F7E0012008C7F281200AC49
:100050007F0C1200AC7F011200AC7F060200ACBB2B
:10006000010CE58229F582E5833AF583E02250060A
:10007000E92582F8E622BBFE06E92582F8E222E5C0
:100080008229F582E5833AF583E49322E4FDFCC3FB
:10009000ED9FEC9E5015E4FBFA0BBB00010AEB64EC
:1000A0007B4A70F50DBD00010C80E422AE07C280D2
:1000B000120128D282C282EF24FE60030470077FFF
:1000C000027E0002008C7F2512017E228B088A09A5
:1000D000890AE4FDAB08AA09A90A8D82758300127A
:1000E000005FFF60061201520D80E9221200037BBF
:1000F000FF7A01790A1200CC7D017F021201627B36
:10010000FF7A0179181200CC80FE444F204E484FF0
:100110004E47204E48454F004445205448554F4EC9
:100120004720533220212100120140D282C282EFA7
:10013000A2E39286A2E29285A2E1928413928322A4
:10014000EF339286EFA2E69285A2E59284A2E49232
:100150008322AE07D280120128D282C2827F290276
:10016000017EBF01047F8080027FC0EF2D14FF025B
:1001700000AC787FE4F6D8FD75810A0200ECAE078A
:050180001FEE70FA22E1
:00000001FF
