:030000000208EB08
:100800007B007A0079087D028B0A8A0B890C8D0D9A
:10081000E4F50EE50EC3950D5047AB0A7C00E50CE0
:10082000250DF9EC350BFAC3E9950EF9EA9400FAB7
:1008300090FFFF12089EFDE4FB74807E00A8030871
:100840008006CEA2E713CE13D8F8FFEDF582EF5560
:100850008224FF9281C280D2800BBB08DC050E800F
:10086000B2C282D28222E4F50F7408250FF8E4F6B2
:10087000050FE50FB402F21208007FF47E011208A2
:10088000CBE4F50F7408250FF876FF050FE50FB4DC
:1008900002F21208007FF47E011208CB80C8BB016F
:1008A0000CE58229F582E5833AF583E0225006E9DA
:1008B0002582F8E622BBFE06E92582F8E222E582DF
:1008C00029F582E5833AF583E49322E4FDFCC3ED48
:1008D0009FEC9E5015E4FBFA0BBB00010AEB647B16
:1008E0004A70F50DBD00010C80E422787FE4F6D853
:0708F000FD75810F0208668F
:00000001FF
