:0A017500C0F9A4B0999282F88090BE
:040149007F017E00B4
:10014D00758901758A18758CFCD28C308DFDC28D28
:0C015D00C28CEF1F70011EEF4E70E822F4
:1000CA00E50B75F00A84F509E50B75F00A8485F0ED
:1000DA0008E50990017593F5A0C2B0120149D2B0A2
:1000EA00E50893F5A0C2B1120149D2B1E50C75F049
:1000FA000A84F509E50C75F00A8485F008E5099388
:10010A00F5A0C2B2120149D2B2E50893F5A0C2B372
:10011A00120149D2B3E50A75F00A84F509E50A75B0
:10012A00F00A8485F008E50993F5A0C2B4120149E2
:0F013A00D2B4E50893F5A0C2B5120149D2B5229F
:10000300E4F50BF50CF50A1200CA209014209005B4
:100013001200CA80F8E50BB41705E4F50B8002055E
:100023000B2091132091051200CA80F8E50B70058F
:10003300750B178002150B20920820920D1200CA2F
:1000430080F82093C22093BF80411200CA209014ED
:100053002090051200CA80F8E50CB43B05E4F50CCA
:100063008002050C2091132091051200CA80F8E547
:100073000C7005750C3B8002150C209208209287AA
:100083001200CA80F82093C22093BF1200CAE4F57D
:100093000DF50E1200CA050EE50E7002050DC39490
:1000A300A6E50D940040EC050AE50AB43CE0E4F54E
:1000B3000A050CE50CB43CD6E4F50C050BE50BB4D2
:0700C30018CCE4F50B80C727
:0300000002016991
:0C016900787FE4F6D8FD75810E020003DB
:00000001FF
