:1000000002008920B50C75A0FF12005FC2B0D2B10A
:10001000D2B220B60BC2A012005FD2A1D2B0C2B140
:1000200020B7E0D2A012005FC2A1D2B0D2B1C2B25A
:1000300080D1BB010CE58229F582E5833AF583E0A6
:10004000225006E92582F8E622BBFE06E92582F861
:10005000E222E58229F582E5833AF583E493227F63
:10006000F47E01E4FDFCC3ED9FEE6480F8EC648057
:10007000985015E4FBFA0BBB00010AEB64644A706C
:10008000F50DBD00010C80DE22787FE4F6D8FD7509
:050090008107020003DE
:00000001FF
