:10000000020026C29FD29E53890F438920758DFD21
:10001000D28ED299D29C22120003D2ACD2AFE4F598
:100020009080FE0200B2787FE4F6D8FD7581080268
:10003000006D020017E493A3F8E493A34003F68055
:1000400001F208DFF48029E493A3F85407240CC8D4
:10005000C333C4540F4420C8834004F4568001467F
:10006000F6DFE4800B01020408102040809001427A
:10007000E47E019360BCA3FF543F30E509541FFEAA
:10008000E493A360010ECF54C025E060A840B8E41B
:1000900093A3FAE493A3F8E493A3C8C582C8CAC59E
:1000A00083CAF0A3C8C582C8CAC583CADFE9DEE730
:1000B00080BEC0E0C0F0C083C082C0D075D000C098
:1000C00000C001C002C003C004C005C006C00712C2
:1000D000013D8F08C2AFE508249E600B14600C241C
:1000E00002700AB2908006B2918002B29275080046
:1000F000759900D2AFD007D006D005D004D003D078
:1001000002D001D000D0D0D082D083D0F0D0E03265
:10011000BB010CE58229F582E5833AF583E02250A4
:1001200006E92582F8E622BBFE06E92582F8E222EE
:10013000E58229F582E5833AF583E49322C298AFFC
:06014000992201080000F5
:00000001FF
