:0A008A00C0F9A4B0999282F88090AA
:10000300E4F508E50875F00A8485F00AE50875F05B
:100013000A84F509E4F50BF50CE50A90008A93F5DB
:10002300B0C2A17F017E0012005ED2A1E50990005B
:100033008A93F5B0C2A07F017E0012005ED2A005B4
:100043000CE50C7002050BC394F4E50B940140C955
:0B0053000508E508C3946440AA80A5DE
:10005E00E4FDFCC3ED9FEC9E5015E4FBFA0BBB00D8
:0F006E00010AEB647B4A70F50DBD00010C80E4C4
:01007D002260
:0300000002007E7D
:0C007E00787FE4F6D8FD75810C020003C9
:00000001FF
