:06000000020233D28C2243
:10000B0002020F75F008758200EF2FFFEE33FECD65
:10001B0033CDCC33CCC58233C5829BED9AEC99E5BD
:10002B008298400CF582EE9BFEED9AFDEC99FC0F4D
:10003B00D5F0D6E4CEFBE4CDFAE4CCF9A88222B815
:10004B0000C1B90059BA002DEC8BF084CFCECDFC9A
:10005B00E5F0CBF97818EF2FFFEE33FEED33FDEC27
:10006B0033FCEB33FB10D703994004EB99FB0FD810
:10007B00E5E4F9FA227818EF2FFFEE33FEED33FDAE
:10008B00EC33FCC933C910D7059BE99A4007EC9BAD
:10009B00FCE99AF90FD8E0E4C9FAE4CCFB2275F03D
:1000AB0010EF2FFFEE33FEED33FDCC33CCC833C84E
:1000BB0010D7079BEC9AE899400AED9BFDEC9AFC54
:1000CB00E899F80FD5F0DAE4CDFBE4CCFAE4C8F903
:1000DB0022E86010ECA2E713FCED13FDEE13FEEF2C
:1000EB0013FFD8F022EC8EF0A4CCC5F0CCCDF8EFFA
:1000FB00A4CEC5F02DFDE43CFCE8A42EC8C5F03D14
:10010B00FDE43CFCEFA4FFE5F028FEE43DFDE43C00
:10011B00FC22EF7005C2A0C2A922BF6405D2A0C207
:10012B00A922AC0EAD0F7E001200F0E47B64FAF94D
:10013B00F812004A8E0A8F0BC3E50F950BF509E5F4
:10014B000E950AF508AB07AA06E4C39BFFE49AFEDB
:10015B0074019400FDE49400FC78081200DC8F100D
:10016B00E4C39BFFE48F11AE08AF09AB07AA06C32C
:10017B009BFFE49AFE74019400FDE49400FC780864
:10018B001200DC8F0CE4C39BFF8F0DD2A9227512DA
:10019B00007513057F207E4E120222120003AF134F
:1001AB0012011D20A11A30A1FD7F147E001201EF58
:1001BB00E513640A451260080513E5137002051276
:1001CB0020A21A30A2FD7F057E001201EFE5136419
:1001DB000545126008E513151370021512AF1312C3
:1001EB00011D80BFE4FDFCC3ED9FEC9E5015E4FBAD
:1001FB00FA0BBB00010AEB647B4A70F50DBD0001E5
:10020B000C80E422B2A020A007850C8C850D8A32CD
:10021B0085108C85118A32D2A05389F0438901D283
:10022B00A9D2AF8E0E8F0F22787FE4F6D8FD7581A1
:04023B001302019910
:00000001FF
