:0A00C500C0F9A4B0999282F880906F
:10000300C280D281D28275080AE50875F00A84900D
:1000130000C593F5A0E50875F00A84E5F093F59023
:100023007FF47E011200991508E508D3940050D996
:10003300D280D281C282750803E50875F00A8490E4
:1000430000C593F5A0E50875F00A84E5F093F590F3
:100053007FF47E011200991508E508D3940050D966
:10006300D280C281D282750807E50875F00A8490B0
:1000730000C593F5A0E50875F00A84E5F093F590C3
:100083007FF47E011200991508E508D3940050D936
:0600930075B0010200033C
:10009900E4FDFCC3ED9FEC9E5015E4FBFA0BBB009D
:0F00A900010AEB647B4A70F50DBD00010C80E489
:0100B8002225
:030000000200B942
:0C00B900787FE4F6D8FD75810802000392
:00000001FF
