:0A019A00C0F9A4B0999282F8809099
:10009100D2A8D288D2AFAF09AE081200F720A2F6DB
:1000A10020A209AF09AE081200F780F485080A857D
:1000B100090BD3E50B9400E50A94004027E4F50C05
:1000C100F50DAF0BAE0A1200F7050DE50D70020537
:1000D1000CC39432E50C940040E8E50B150B70D28B
:1000E100150A80CEC2A37F887E13120153D2A3E4E6
:0600F100F508F50980A0EE
:0400F700AB07AA06A3
:1000FB007C007D641200067E007F0ACFCDCFCECC74
:10010B00CE1200068E0E8F0FAE02AF037C007D0A5F
:10011B00120006749A2DF58274013CF583E493F575
:10012B0080D2A07F0A7E00120153C2A0749A250FC1
:10013B00F5827401350EF583E493F580D2A17F0A25
:07014B007E00120153C2A166
:01015200228A
:0300030002017384
:10017300C0E0E509646345087006F508F5098008E1
:0B0183000509E50970020508D0E03214
:10015300E4FDFCC3ED9FEC9E5015E4FBFA0BBB00E2
:0F016300010AEB647B4A70F50DBD00010C80E4CE
:01017200226A
:0300000002018E6C
:0C018E00787FE4F6D8FD75810F02009127
:10000600C2D5EC30E709B2D5E4C39DFDE49CFCEE15
:1000160030E715B2D5E4C39FFFE49EFE12003CC351
:10002600E49DFDE49CFC800312003C30D507C3E44C
:060036009FFFE49EFE2284
:10003C00BC000BBE0029EF8DF084FFADF022E4CCA8
:10004C00F875F008EF2FFFEE33FEEC33FCEE9DEC71
:10005C00984005FCEE9DFE0FD5F0E9E4CEFD22EDB7
:10006C00F8F5F0EE8420D21CFEADF075F008EF2F01
:10007C00FFED33FD4007985006D5F0F222C398FDF2
:05008C000FD5F0EA228F
:00000001FF
