:1000000002044AE517240BF8E605172278083007A2
:1000100002780BE475F0011203B702035F2000EBD6
:100020007F2ED2008018EF540F2490D43440D4FF98
:1000300030040BEF24BFB41A0050032461FFE5180D
:1000400060021518051BE51B7002051A30070D78B4
:1000500008E475F0011203B7EF0203A50203ED7483
:1000600003D2078003E4C207F5178B088A09890ABF
:10007000E4F518F51AF51BE51860077F2012003E1D
:1000800080F57519FFC201C200C202C203C205C2D7
:1000900006C20812000CFF700D3007057F00120029
:1000A0004FAF1BAE1A22B4255FC2D5C20412000C9A
:1000B000FF24D0B40A00501A75F00A781830D5051C
:1000C00008B6FF0106C6A426F620D5047002D203A6
:1000D00080D924CFB41A00EF5004C2E5D204020242
:1000E0004FD20180C6D20080C0D20280BCD2D5805F
:1000F000BAD20580B47F2012003E2002077401B5F9
:10010000180040F1120003FF12003E020077D208EF
:10011000D2068095120003FB120003FA120003F9C5
:100120004A4B700679207A037BFF20022EE5186087
:100130002A7E008E8275830012037860060EEE65BB
:100140001970F0C2D5EBC0E0EAC0E0E9C0E0EE1201
:100150000296D0E0F9D0E0FAD0E0FB12035FFF6036
:10016000AAEBC0E0EAC0E0E9C0E012003ED0E02423
:1001700001F9D0E03400FAD0E0FBE5190460DCD5E9
:1001800019D980877BFF7A027992D202809C7910FC
:1001900080027908C206C2088008D2D5790A800494
:1001A000790AC2D5E519047002F519E4FAFDFEFFDB
:1001B000120003FC7B08200113120003FD7B1030AA
:1001C000000A120003FE120003FF7B20EC3382D5ED
:1001D00092D55013C3E43000069FFFE49EFEE42056
:1001E00001039DFDE49CFCE4CBF8C201EC700CCF54
:1001F000CECDCCE824F8F870F38017C3EF33FFEED0
:1002000033FEED33FDEC33FCEB33FB994002FB0F87
:10021000D8E9EB300105F8D0E0C448B201C0E00AEB
:10022000EC4D4E4F78207B0070C2EAB5190040BCFF
:10023000C0E0120298D0F0D0E0200104C4C0E0C4B5
:10024000B201C0F0120027D0F0D5F0EB0200771217
:1002500003C7011453018E5800E54C00E14201929E
:100260004F019A44019A4900FA4301A0550184467E
:1002700001844501844703405000E92D00ED2E0123
:10028000102B00F123010E2003292A00A9480000A9
:1002900001083F3F3F00790AA2D520031430050929
:1002A000B910020404B9080104A2D52006025001C5
:1002B000042002689202B518005034C0E07F20305C
:1002C00003197F30A20272067205500F1202EFC2AC
:1002D00002C206C205C2087F30800F300503E9C0A4
:1002E000E012003E300503D0E0F9D0E0B518CC3084
:1002F00005177F30B9100C12003E7F583004077F7D
:10030000788003B9080312003E3002057F2D0200F9
:100310003E7F202008F87F2B2006F322920280CF18
:10032000286E756C6C2900D2011200033001F8C2EE
:1003300001781830D50108F60200A92D504349581C
:100340001200032403B405004001E490033B931220
:10035000002F743A12002FD20375180402018EBBCD
:10036000010689828A83E0225002E722BBFE02E373
:100370002289828A83E49322BB010CE58229F582DB
:10038000E5833AF583E0225006E92582F8E622BBB0
:10039000FE06E92582F8E222E58229F582E5833A24
:1003A000F583E49322BB010689828A83F0225002FE
:1003B000F722BBFE01F322FAE6FB0808E6F925F076
:1003C000F618E6CA3AF622D083D082F8E493701287
:1003D000740193700DA3A393F8740193F58288833D
:1003E000E4737402936860EFA3A3A380DFEFB40A01
:1003F00007740D1203F8740A309811A899B8130CF9
:10040000C2983098FDA899C298B811F63099FDC2EB
:1004100099F59922C29FD29E53890F438920758DE9
:10042000FDD28ED29CD299221204147F411203ED88
:100430007BFF7A04793B12006580FE200D20686501
:100440006C6C6F20776F726B2000787FE4F6D8FDBC
:0604500075812102042861
:00000001FF
