:0A008B00FC60DAF266B6BEE0FEF695
:10003B00750800750909E50990008B93F5807FF42D
:10004B007E017D007C00120003E509150970021585
:0E005B0008D3E5099400E508940050DA80D23D
:080003008F0D8E0C8D0B8C0A91
:10000B00900000AF82AE83E4FCFDAB0DAA0CA90BF4
:10001B00A80AD31200694017758901758CFC758A83
:0F002B0018C28DD28C308DFDC28DC28CA380D4B3
:01003A0022A3
:0300000002007F7C
:0C007F00787FE4F6D8FD75810D02003B8F
:10006900EB9FF5F0EA9E42F0E99D42F0EC6480C80E
:0600790064809845F022AE
:00000001FF
