:10015C00E4FDFCC3ED9FEC9E5015E4FBFA0BBB00D9
:0F016C00010AEB647B4A70F50DBD00010C80E4C5
:01017B002261
:10000300E4F508F50912006B0509E5097002050816
:10001300C39405E508940040ECE4F508F5091200E3
:10002300C90509E50970020508C39402E5089400AF
:1000330040ECE4F508F5091201020509E50970022F
:100043000508C39402E508940040ECE4F508F509BB
:10005300C3E5099405E508940050BE12013805096B
:08006300E50970EC050880E8D6
:1000C900E4F580C2A7D2A0C2A1C2A27FF47E011228
:1000D900015CC2A0D2A1C2A27FF47E0112015CC25E
:1000E900A0C2A1D2A27FF47E0112015CC2A0D2A15A
:0900F900C2A27FF47E0102015C49
:10010200D2A2D2A1D2A07580F8D2A77FF47E01122A
:10011200015C7580C7D2A77FF47E0112015C7580F5
:100122003FC2A77FF47E0112015C7580C7D2A77F10
:06013200F47E0102015CF5
:100138007580AAC2A7D2A2D2A1D2A07FF47E011252
:10014800015C758055D2A7D2A2D2A1D2A07FF47E3D
:040158000102015C43
:10006B007580EFD2A7D2A0C2A1C2A27F967E00124A
:10007B00015CC2A0D2A1C2A27F967E0012015CC21B
:10008B00A0C2A1D2A27FC87E0012015C7580AAC259
:10009B00A77FFA7E0012015C758055D2A77FFA7E8E
:1000AB000012015CC2A0D2A1C2A27FC87E001201C5
:0E00BB005CD2A0C2A1C2A27FC87E0002015C7E
:0300000002017C7E
:0C017C00787FE4F6D8FD758109020003CD
:00000001FF
