:100000000201BD7F147E001201741200B9EF14B416
:10001000100040030200A590002575F003A4C583DD
:1000200025F0C5837302005502005C0200610200E6
:100030006602006B02007002007502007A02007F07
:1000400002008402008902008E02009302009802DE
:10005000009D0200A27F0112019480497508318041
:1000600044750834803F750837803A75083080350C
:100070007508328030750835802B750838802675F4
:10008000083D8021750833801C7508368017750877
:1000900039801275082F800D750878800875082D35
:1000A000800375082B1200B9EF600DAF081201AE86
:1000B0001200B9EF60EF80F822E4FFC290209401B3
:1000C0000F2095027F022096027F032097027F0473
:1000D000D290C2912094027F052095027F0620963F
:1000E000027F072097027F08D291C2922094027F5C
:1000F000092095027F0A2096027F0B2097027F0C31
:10010000D292C2932094027F0D2095027F0E2096FA
:10011000027F0F2097027F10D29322BB010CE58251
:1001200029F582E5833AF583E0225006E92582F835
:10013000E622BBFE06E92582F8E222E58229F58265
:10014000E5833AF583E493227F301201947F057EA4
:10015000001201747F301201947F017E001201743D
:100160007F301201947F381201947F011201947F35
:100170000C020194E4FDFCC3ED9FEC9E5015E4FBE2
:10018000FA0BBB00010AEB647B4A70F50DBD000160
:100190000C80E422C2A08FB0C2A1D2A1EFD39402FE
:1001A00050047F0280027F017E0012017422D2A0DF
:1001B0008FB0C2A1D2A17F017E00020174787FE4DA
:1001C000F6D8FD7581080201C912014812000380AA
:0101D000FB33
:00000001FF
