:1000000002033EE4F5901200E41202F87BFF7A024C
:1000100079C51201AD7D017F0112032E7BFF7A02AB
:1000200079C51201AD120351EF60FA1203578F0820
:10003000E508B473F07F0112018D7BFF7A0279CF5E
:100040001201AD7FF47E0112016D7F0112018D124C
:1000500001CD1201EC12020B12022A120249120205
:10006000681202878071120351EF60FA1203578FF2
:1000700008E508249B60652435B4080050E890002A
:100080008C75F003A4C58325F0C583730200A40218
:1000900000AB0200B20200B90200C00200C70200B9
:1000A000CE0200D5B2901201CD80BBB2911201EC0C
:1000B00080B4B29212020B80ADB29312022A80A6D3
:1000C000B294120249809FB2951202688098B2964B
:1000D0001202878091B2971202A6808A7F011201D4
:1000E0008D020015C280C2817F147E0012016D7FD7
:1000F000031202E7D281C2817F057E0012016D7F6B
:10010000031202E7D281C2817F6412034A7F031285
:1001100002E7D281C2817F017E0012016D7F02124F
:1001200002E7D281C2811F7E0012016D7F28120179
:100130008D7F0C12018D7F0112018D7F0602018DD2
:10014000BB010CE58229F582E5833AF583E0225074
:1001500006E92582F8E622BBFE06E92582F8E222BE
:10016000E58229F582E5833AF583E49322E4FDFCF8
:10017000C3ED9FEC9E5015E4FBFA0BBB00010AEBAC
:10018000647B4A70F50DBD00010C80E422AE07C20D
:10019000801202E0D281C281EF24FE600304700766
:1001A0007F027E0002016D7F2512034A228B098A9D
:1001B0000A890BE4FDAB09AA0AA90B8D827583009D
:1001C000120140FF600612031E0D80E9227D017FAF
:1001D0000130900B12032E7BFF7A0279D88009122E
:1001E000032E7BFF7A0279DC1201AD227D057F01AF
:1001F00030910B12032E7BFF7A0279D8800912030B
:100200002E7BFF7A0279DC1201AD227D097F01305D
:10021000920B12032E7BFF7A0279D8800912032EEB
:100220007BFF7A0279DC1201AD227D0D7F013093D4
:100230000B12032E7BFF7A0279D8800912032E7BE2
:10024000FF7A0279DC1201AD227D017F0230940B2E
:1002500012032E7BFF7A0279D8800912032E7BFFCE
:100260007A0279DC1201AD227D057F0230950B12F6
:10027000032E7BFF7A0279D8800912032E7BFF7A46
:100280000279DC1201AD227D097F0230960B120348
:100290002E7BFF7A0279D8800912032E7BFF7A0227
:1002A00079DC1201AD227D0D7F0230970B12032EF7
:1002B0007BFF7A0279D8800912032E7BFF7A0279BC
:1002C000DC1201AD22636F6E6E65742E2E2E00520D
:1002D000454144592E2E2E004F4E20004F464600D9
:1002E00012030CD281C281EFA2E39285A2E2928432
:1002F000A2E1928313928222C29FD29E53890F431E
:100300008920758DFDD28ED299D29C22EF339285B1
:10031000EFA2E69284A2E59283A2E4928222AE0743
:10032000D2801202E0D281C2817F2902034ABF013A
:10033000047F8080027FC0EF2D14FF02018D787F43
:10034000E4F6D8FD75810B020003AE071FEE70FACC
:0C03500022A298E433FF22C298AF992249
:00000001FF
