:1000E4007F647E001200B4D28C7F017E00120094E3
:0200F40080F793
:1000B400D290758901D2A9D2AFAD07AC06ECC313B7
:0B00C400FEED138E0AF50B8E08F50907
:0100CF00220E
:03000B0002000EE2
:10000E00C0E0C0D075D000B290309039AE0AAF0BC0
:10001E00AB07AA06E4C39BFFE49AFE74019400FDAD
:10002E00E49400FC78081200D08F8CAE0AAF0BABB4
:10003E0007AA06E4C39BFFE49AFE74019400FDE454
:10004E009400FC8F8A209039AE08AF09AB07AA0640
:10005E00E4C39BFFE49AFE74019400FDE49400FC5B
:10006E0078081200D08F8CAE08AF09AB07AA06E451
:10007E00C39BFFE49AFE74019400FDE49400FC8F90
:06008E008AD0D0D0E03260
:10009400E4FDFCC3ED9FEC9E5015E4FBFA0BBB00A2
:0F00A400010AEB647B4A70F50DBD00010C80E48E
:0100B300222A
:030000000200F605
:0C00F600787FE4F6D8FD75810B0200E471
:1000D000E86010ECA2E713FCED13FDEE13FEEF1346
:0400E000FFD8F02233
:00000001FF
