:10009A0000000000000000000000FE9292443800B8
:1000AA00F8141214F8000082FE820000000000001A
:1000BA0000FE101010FE007C8282827C007C82820C
:1000CA0082440000000000007C82A2C27C40007EC4
:1000DA008080807E000608F008060000000000000C
:1000EA00FE040810FE00FE101010FE007C828282C0
:1000FA007C00FE040810FE00000000000000000062
:08010A000000000000000000ED
:0701BD00020C000001080024
:03000B000201B43B
:0901B400B281758CFD758A1232CE
:03000300020112E5
:10011200C0E0C083C082C0D075D010758CFD758AD6
:1001220012D28CC281E508703F750900750A00750C
:100132000B19AF0B150BEF600BE50A90009A93F4C5
:10014200F59080EE050AE50A700205096478450912
:1001520070DD050DE50D7002050C64C8450C7011CB
:10016200F50CF50D05088009750800750C00750D74
:0A01720000D0D0D082D083D0E0325C
:10019C007589017590FF7580FFD2AFD2A8D2A97F67
:0801AC00E87E0312017C80F7DC
:10017C00E4FDFCC3ED9FEC9E5015E4FBFA0BBB00B9
:0F018C00010AEB647B4A70F50DBD00010C80E4A5
:01019B002241
:0300000002000EED
:0C000E00787FE4F6D8FD758117020055DC
:10001A0002019CE493A3F8E493A34003F68001F25F
:10002A0008DFF48029E493A3F85407240CC8C333E7
:10003A00C4540F4420C8834004F456800146F6DFB6
:10004A00E4800B01020408102040809001BDE47E88
:10005A00019360BCA3FF543F30E509541FFEE493AB
:10006A00A360010ECF54C025E060A840B8E493A372
:10007A00FAE493A3F8E493A3C8C582C8CAC583CA9D
:10008A00F0A3C8C582C8CAC583CADFE9DEE780BE55
:0101C400003A
:00000001FF
