:10013C00E4FDFCC3ED9FEC9E5015E4FBFA0BBB00F9
:0F014C00010AEB647B4A70F50DBD00010C80E4E5
:01015B002281
:1000FC00750B81750C81750D81750E81750FFF7BEC
:10010C00817D817FFF1200037FF47E0112013C751B
:10011C000B18750C18750D24750E42750F817B2408
:10012C007D427F811200037FF47E0112013C80C06E
:060003008F088D09A9031E
:10000900E4FBFAAF0374807E00A807088006CEA23D
:10001900E713CE13D8F8FFEF550824FF92A0AF03DA
:1000290074807E00A807088006CEA2E713CE13D8F5
:10003900F8FFEF550924FF92A1AF0374807E00A851
:1000490007088006CEA2E713CE13D8F8FFE9FDEF23
:100059005D24FF92A2AF0374807E00A80708800682
:10006900CEA2E713CE13D8F8FFEF550B24FF92A3C6
:10007900AF0374807E00A807088006CEA2E713CEDE
:1000890013D8F8FFEF550C24FF92A4AF0374807EB8
:1000990000A807088006CEA2E713CE13D8F8FFEF11
:1000A900550D24FF92A5AF0374807E00A807088030
:1000B90006CEA2E713CE13D8F8FFEF550E24FF9210
:1000C900A6AF0374807E00A807088006CEA2E713B6
:1000D900CE13D8F8FFEF550F24FF92A7C280D28024
:1000E9000BBB00010AEB64084A600302000CC281E1
:0200F900D281B2
:0100FB0022E2
:0300000002015C9E
:0C015C00787FE4F6D8FD75810F0200FCEE
:00000001FF
