:1000030075A0FE75A0FEE4F508F5097F647E001275
:100013000059E5A025E0F5A00509E50970020508EA
:10002300C39408E5086480948040E0E4F508F5098A
:10003300C3E5099408E5086480948050C67F647E14
:1000430000120059E5A025E04401F5A00509E509E2
:0600530070DE050880DAF2
:10005900E4FDFCC3ED9FEC9E5015E4FBFA0BBB00DD
:0F006900010AEB647B4A70F50DBD00010C80E4C9
:010078002265
:0300000002007982
:0C007900787FE4F6D8FD758109020003D1
:00000001FF
