:10017E0004120804020104160C060309080A080CEE
:0A018E00040602030109020801F44F
:100003002095FD209053751A00751B0312014CE5D2
:100013001B151B7002151AC3E51A6480948050ECFB
:10002300209314E50964644508600C749C2509F564
:100033000974FF3508F508209417E50964E870048E
:10004300E5086403600B74642509F509E43508F5D4
:10005300083091AF2092AF80AA209158E4F51AF5A9
:100063001B12014C051BE51B7002051AC39404E522
:100073001A6480948040EA209314E5096464450877
:10008300600C749C2509F50974FF3508F508209464
:1000930017E50964E87004E5086403600B746425DC
:1000A30009F509E43508F5082090030200062092BB
:0D00B300AB020006309203020006020003BB
:0C014C007416251BF8E6F5A0AF09AE08FC
:10015800E4FDFCC3ED9FEC9E501B758901758CFC7A
:10016800758A18C28DD28C308DFDC28DC28C0DBDA2
:0501780000010C80DE17
:01017D00225F
:030000000200C03B
:0C00C000787FE4F6D8FD75811B02010773
:1000CC00020003E493A3F8E493A34003F68001F247
:1000DC0008DFF48029E493A3F85407240CC8C33335
:1000EC00C4540F4420C8834004F456800146F6DF04
:1000FC00E4800B010204081020408090017EE47E15
:10010C00019360BCA3FF543F30E509541FFEE493F8
:10011C00A360010ECF54C025E060A840B8E493A3BF
:10012C00FAE493A3F8E493A3C8C582C8CAC583CAEA
:10013C00F0A3C8C582C8CAC583CADFE9DEE780BEA2
:010198000066
:00000001FF
